{
  "_format": "hh-sol-artifact-1",
  "contractName": "CarbonOffsetNFT",
  "sourceName": "contracts/CarbonOffsetNFT.sol",
  "abi": [
    {
      "inputs": [
        {
          "internalType": "address",
          "name": "_carbonTokenAddress",
          "type": "address"
        }
      ],
      "stateMutability": "nonpayable",
      "type": "constructor"
    },
    {
      "inputs": [
        {
          "internalType": "address",
          "name": "sender",
          "type": "address"
        },
        {
          "internalType": "uint256",
          "name": "tokenId",
          "type": "uint256"
        },
        {
          "internalType": "address",
          "name": "owner",
          "type": "address"
        }
      ],
      "name": "ERC721IncorrectOwner",
      "type": "error"
    },
    {
      "inputs": [
        {
          "internalType": "address",
          "name": "operator",
          "type": "address"
        },
        {
          "internalType": "uint256",
          "name": "tokenId",
          "type": "uint256"
        }
      ],
      "name": "ERC721InsufficientApproval",
      "type": "error"
    },
    {
      "inputs": [
        {
          "internalType": "address",
          "name": "approver",
          "type": "address"
        }
      ],
      "name": "ERC721InvalidApprover",
      "type": "error"
    },
    {
      "inputs": [
        {
          "internalType": "address",
          "name": "operator",
          "type": "address"
        }
      ],
      "name": "ERC721InvalidOperator",
      "type": "error"
    },
    {
      "inputs": [
        {
          "internalType": "address",
          "name": "owner",
          "type": "address"
        }
      ],
      "name": "ERC721InvalidOwner",
      "type": "error"
    },
    {
      "inputs": [
        {
          "internalType": "address",
          "name": "receiver",
          "type": "address"
        }
      ],
      "name": "ERC721InvalidReceiver",
      "type": "error"
    },
    {
      "inputs": [
        {
          "internalType": "address",
          "name": "sender",
          "type": "address"
        }
      ],
      "name": "ERC721InvalidSender",
      "type": "error"
    },
    {
      "inputs": [
        {
          "internalType": "uint256",
          "name": "tokenId",
          "type": "uint256"
        }
      ],
      "name": "ERC721NonexistentToken",
      "type": "error"
    },
    {
      "inputs": [],
      "name": "ReentrancyGuardReentrantCall",
      "type": "error"
    },
    {
      "anonymous": false,
      "inputs": [
        {
          "indexed": true,
          "internalType": "address",
          "name": "owner",
          "type": "address"
        },
        {
          "indexed": true,
          "internalType": "address",
          "name": "approved",
          "type": "address"
        },
        {
          "indexed": true,
          "internalType": "uint256",
          "name": "tokenId",
          "type": "uint256"
        }
      ],
      "name": "Approval",
      "type": "event"
    },
    {
      "anonymous": false,
      "inputs": [
        {
          "indexed": true,
          "internalType": "address",
          "name": "owner",
          "type": "address"
        },
        {
          "indexed": true,
          "internalType": "address",
          "name": "operator",
          "type": "address"
        },
        {
          "indexed": false,
          "internalType": "bool",
          "name": "approved",
          "type": "bool"
        }
      ],
      "name": "ApprovalForAll",
      "type": "event"
    },
    {
      "anonymous": false,
      "inputs": [
        {
          "indexed": false,
          "internalType": "uint256",
          "name": "_fromTokenId",
          "type": "uint256"
        },
        {
          "indexed": false,
          "internalType": "uint256",
          "name": "_toTokenId",
          "type": "uint256"
        }
      ],
      "name": "BatchMetadataUpdate",
      "type": "event"
    },
    {
      "anonymous": false,
      "inputs": [
        {
          "indexed": true,
          "internalType": "uint256",
          "name": "tokenId",
          "type": "uint256"
        },
        {
          "indexed": true,
          "internalType": "address",
          "name": "retiree",
          "type": "address"
        },
        {
          "indexed": false,
          "internalType": "uint256",
          "name": "amount",
          "type": "uint256"
        }
      ],
      "name": "CarbonRetired",
      "type": "event"
    },
    {
      "anonymous": false,
      "inputs": [
        {
          "indexed": false,
          "internalType": "uint256",
          "name": "_tokenId",
          "type": "uint256"
        }
      ],
      "name": "MetadataUpdate",
      "type": "event"
    },
    {
      "anonymous": false,
      "inputs": [
        {
          "indexed": true,
          "internalType": "address",
          "name": "from",
          "type": "address"
        },
        {
          "indexed": true,
          "internalType": "address",
          "name": "to",
          "type": "address"
        },
        {
          "indexed": true,
          "internalType": "uint256",
          "name": "tokenId",
          "type": "uint256"
        }
      ],
      "name": "Transfer",
      "type": "event"
    },
    {
      "inputs": [
        {
          "internalType": "address",
          "name": "to",
          "type": "address"
        },
        {
          "internalType": "uint256",
          "name": "tokenId",
          "type": "uint256"
        }
      ],
      "name": "approve",
      "outputs": [],
      "stateMutability": "nonpayable",
      "type": "function"
    },
    {
      "inputs": [
        {
          "internalType": "address",
          "name": "owner",
          "type": "address"
        }
      ],
      "name": "balanceOf",
      "outputs": [
        {
          "internalType": "uint256",
          "name": "",
          "type": "uint256"
        }
      ],
      "stateMutability": "view",
      "type": "function"
    },
    {
      "inputs": [],
      "name": "carbonToken",
      "outputs": [
        {
          "internalType": "contract IERC20",
          "name": "",
          "type": "address"
        }
      ],
      "stateMutability": "view",
      "type": "function"
    },
    {
      "inputs": [
        {
          "internalType": "uint256",
          "name": "tokenId",
          "type": "uint256"
        }
      ],
      "name": "getApproved",
      "outputs": [
        {
          "internalType": "address",
          "name": "",
          "type": "address"
        }
      ],
      "stateMutability": "view",
      "type": "function"
    },
    {
      "inputs": [
        {
          "internalType": "uint256",
          "name": "tokenId",
          "type": "uint256"
        }
      ],
      "name": "getRetiredAmount",
      "outputs": [
        {
          "internalType": "uint256",
          "name": "",
          "type": "uint256"
        }
      ],
      "stateMutability": "view",
      "type": "function"
    },
    {
      "inputs": [
        {
          "internalType": "address",
          "name": "owner",
          "type": "address"
        },
        {
          "internalType": "address",
          "name": "operator",
          "type": "address"
        }
      ],
      "name": "isApprovedForAll",
      "outputs": [
        {
          "internalType": "bool",
          "name": "",
          "type": "bool"
        }
      ],
      "stateMutability": "view",
      "type": "function"
    },
    {
      "inputs": [],
      "name": "name",
      "outputs": [
        {
          "internalType": "string",
          "name": "",
          "type": "string"
        }
      ],
      "stateMutability": "view",
      "type": "function"
    },
    {
      "inputs": [],
      "name": "nextTokenId",
      "outputs": [
        {
          "internalType": "uint256",
          "name": "",
          "type": "uint256"
        }
      ],
      "stateMutability": "view",
      "type": "function"
    },
    {
      "inputs": [
        {
          "internalType": "uint256",
          "name": "tokenId",
          "type": "uint256"
        }
      ],
      "name": "ownerOf",
      "outputs": [
        {
          "internalType": "address",
          "name": "",
          "type": "address"
        }
      ],
      "stateMutability": "view",
      "type": "function"
    },
    {
      "inputs": [
        {
          "internalType": "uint256",
          "name": "amount",
          "type": "uint256"
        }
      ],
      "name": "retireTokens",
      "outputs": [
        {
          "internalType": "uint256",
          "name": "",
          "type": "uint256"
        }
      ],
      "stateMutability": "nonpayable",
      "type": "function"
    },
    {
      "inputs": [
        {
          "internalType": "uint256",
          "name": "",
          "type": "uint256"
        }
      ],
      "name": "retiredAmounts",
      "outputs": [
        {
          "internalType": "uint256",
          "name": "",
          "type": "uint256"
        }
      ],
      "stateMutability": "view",
      "type": "function"
    },
    {
      "inputs": [
        {
          "internalType": "address",
          "name": "from",
          "type": "address"
        },
        {
          "internalType": "address",
          "name": "to",
          "type": "address"
        },
        {
          "internalType": "uint256",
          "name": "tokenId",
          "type": "uint256"
        }
      ],
      "name": "safeTransferFrom",
      "outputs": [],
      "stateMutability": "nonpayable",
      "type": "function"
    },
    {
      "inputs": [
        {
          "internalType": "address",
          "name": "from",
          "type": "address"
        },
        {
          "internalType": "address",
          "name": "to",
          "type": "address"
        },
        {
          "internalType": "uint256",
          "name": "tokenId",
          "type": "uint256"
        },
        {
          "internalType": "bytes",
          "name": "data",
          "type": "bytes"
        }
      ],
      "name": "safeTransferFrom",
      "outputs": [],
      "stateMutability": "nonpayable",
      "type": "function"
    },
    {
      "inputs": [
        {
          "internalType": "address",
          "name": "operator",
          "type": "address"
        },
        {
          "internalType": "bool",
          "name": "approved",
          "type": "bool"
        }
      ],
      "name": "setApprovalForAll",
      "outputs": [],
      "stateMutability": "nonpayable",
      "type": "function"
    },
    {
      "inputs": [
        {
          "internalType": "bytes4",
          "name": "interfaceId",
          "type": "bytes4"
        }
      ],
      "name": "supportsInterface",
      "outputs": [
        {
          "internalType": "bool",
          "name": "",
          "type": "bool"
        }
      ],
      "stateMutability": "view",
      "type": "function"
    },
    {
      "inputs": [],
      "name": "symbol",
      "outputs": [
        {
          "internalType": "string",
          "name": "",
          "type": "string"
        }
      ],
      "stateMutability": "view",
      "type": "function"
    },
    {
      "inputs": [
        {
          "internalType": "uint256",
          "name": "tokenId",
          "type": "uint256"
        }
      ],
      "name": "tokenURI",
      "outputs": [
        {
          "internalType": "string",
          "name": "",
          "type": "string"
        }
      ],
      "stateMutability": "view",
      "type": "function"
    },
    {
      "inputs": [
        {
          "internalType": "address",
          "name": "from",
          "type": "address"
        },
        {
          "internalType": "address",
          "name": "to",
          "type": "address"
        },
        {
          "internalType": "uint256",
          "name": "tokenId",
          "type": "uint256"
        }
      ],
      "name": "transferFrom",
      "outputs": [],
      "stateMutability": "nonpayable",
      "type": "function"
    }
  ],
  "bytecode": "0x608060405234801561000f575f5ffd5b50604051612da0380380612da0833981810160405281019061003191906101b8565b6040518060400160405280601981526020017f436172626f6e204f6666736574204365727469666963617465000000000000008152506040518060400160405280600781526020017f4343542d4e465400000000000000000000000000000000000000000000000000815250815f90816100ab9190610420565b5080600190816100bb9190610420565b50505060016100dc6100d161012860201b60201c565b61015160201b60201c565b5f01819055508060075f6101000a81548173ffffffffffffffffffffffffffffffffffffffff021916908373ffffffffffffffffffffffffffffffffffffffff160217905550506104ef565b5f7f9b779b17422d0df92223018b32b4d1fa46e071723d6817e2486d003becc55f005f1b905090565b5f819050919050565b5f5ffd5b5f73ffffffffffffffffffffffffffffffffffffffff82169050919050565b5f6101878261015e565b9050919050565b6101978161017d565b81146101a1575f5ffd5b50565b5f815190506101b28161018e565b92915050565b5f602082840312156101cd576101cc61015a565b5b5f6101da848285016101a4565b91505092915050565b5f81519050919050565b7f4e487b71000000000000000000000000000000000000000000000000000000005f52604160045260245ffd5b7f4e487b71000000000000000000000000000000000000000000000000000000005f52602260045260245ffd5b5f600282049050600182168061025e57607f821691505b6020821081036102715761027061021a565b5b50919050565b5f819050815f5260205f209050919050565b5f6020601f8301049050919050565b5f82821b905092915050565b5f600883026102d37fffffffffffffffffffffffffffffffffffffffffffffffffffffffffffffffff82610298565b6102dd8683610298565b95508019841693508086168417925050509392505050565b5f819050919050565b5f819050919050565b5f61032161031c610317846102f5565b6102fe565b6102f5565b9050919050565b5f819050919050565b61033a83610307565b61034e61034682610328565b8484546102a4565b825550505050565b5f5f905090565b610365610356565b610370818484610331565b505050565b5b81811015610393576103885f8261035d565b600181019050610376565b5050565b601f8211156103d8576103a981610277565b6103b284610289565b810160208510156103c1578190505b6103d56103cd85610289565b830182610375565b50505b505050565b5f82821c905092915050565b5f6103f85f19846008026103dd565b1980831691505092915050565b5f61041083836103e9565b9150826002028217905092915050565b610429826101e3565b67ffffffffffffffff811115610442576104416101ed565b5b61044c8254610247565b610457828285610397565b5f60209050601f831160018114610488575f8415610476578287015190505b6104808582610405565b8655506104e7565b601f19841661049686610277565b5f5b828110156104bd57848901518255600182019150602085019450602081019050610498565b868310156104da57848901516104d6601f8916826103e9565b8355505b6001600288020188555050505b505050505050565b6128a4806104fc5f395ff3fe608060405234801561000f575f5ffd5b5060043610610114575f3560e01c806375794a3c116100a0578063b88d4fde1161006f578063b88d4fde146102f0578063c87b56dd1461030c578063d791399e1461033c578063e94a15e21461036c578063e985e9c51461039c57610114565b806375794a3c1461027a57806382a71ef21461029857806395d89b41146102b6578063a22cb465146102d457610114565b806323b872dd116100e757806323b872dd146101b257806342842e0e146101ce5780636352211e146101ea57806370a082311461021a578063713b9b771461024a57610114565b806301ffc9a71461011857806306fdde0314610148578063081812fc14610166578063095ea7b314610196575b5f5ffd5b610132600480360381019061012d9190611c50565b6103cc565b60405161013f9190611c95565b60405180910390f35b61015061042c565b60405161015d9190611d1e565b60405180910390f35b610180600480360381019061017b9190611d71565b6104bb565b60405161018d9190611ddb565b60405180910390f35b6101b060048036038101906101ab9190611e1e565b6104d6565b005b6101cc60048036038101906101c79190611e5c565b6104ec565b005b6101e860048036038101906101e39190611e5c565b6105eb565b005b61020460048036038101906101ff9190611d71565b61060a565b6040516102119190611ddb565b60405180910390f35b610234600480360381019061022f9190611eac565b61061b565b6040516102419190611ee6565b60405180910390f35b610264600480360381019061025f9190611d71565b6106d1565b6040516102719190611ee6565b60405180910390f35b6102826106e6565b60405161028f9190611ee6565b60405180910390f35b6102a06106ec565b6040516102ad9190611f5a565b60405180910390f35b6102be610711565b6040516102cb9190611d1e565b60405180910390f35b6102ee60048036038101906102e99190611f9d565b6107a1565b005b61030a60048036038101906103059190612107565b6107b7565b005b61032660048036038101906103219190611d71565b6107dc565b6040516103339190611d1e565b60405180910390f35b61035660048036038101906103519190611d71565b610858565b6040516103639190611ee6565b60405180910390f35b61038660048036038101906103819190611d71565b610872565b6040516103939190611ee6565b60405180910390f35b6103b660048036038101906103b19190612187565b610a9f565b6040516103c39190611c95565b60405180910390f35b5f634906490660e01b7bffffffffffffffffffffffffffffffffffffffffffffffffffffffff1916827bffffffffffffffffffffffffffffffffffffffffffffffffffffffff19161480610425575061042482610b2d565b5b9050919050565b60605f805461043a906121f2565b80601f0160208091040260200160405190810160405280929190818152602001828054610466906121f2565b80156104b15780601f10610488576101008083540402835291602001916104b1565b820191905f5260205f20905b81548152906001019060200180831161049457829003601f168201915b5050505050905090565b5f6104c582610c0e565b506104cf82610c94565b9050919050565b6104e882826104e3610ccd565b610cd4565b5050565b5f73ffffffffffffffffffffffffffffffffffffffff168273ffffffffffffffffffffffffffffffffffffffff160361055c575f6040517f64a0ae920000000000000000000000000000000000000000000000000000000081526004016105539190611ddb565b60405180910390fd5b5f61056f838361056a610ccd565b610ce6565b90508373ffffffffffffffffffffffffffffffffffffffff168173ffffffffffffffffffffffffffffffffffffffff16146105e5578382826040517f64283d7b0000000000000000000000000000000000000000000000000000000081526004016105dc93929190612222565b60405180910390fd5b50505050565b61060583838360405180602001604052805f8152506107b7565b505050565b5f61061482610c0e565b9050919050565b5f5f73ffffffffffffffffffffffffffffffffffffffff168273ffffffffffffffffffffffffffffffffffffffff160361068c575f6040517f89c62b640000000000000000000000000000000000000000000000000000000081526004016106839190611ddb565b60405180910390fd5b60035f8373ffffffffffffffffffffffffffffffffffffffff1673ffffffffffffffffffffffffffffffffffffffff1681526020019081526020015f20549050919050565b6009602052805f5260405f205f915090505481565b60085481565b60075f9054906101000a900473ffffffffffffffffffffffffffffffffffffffff1681565b606060018054610720906121f2565b80601f016020809104026020016040519081016040528092919081815260200182805461074c906121f2565b80156107975780601f1061076e57610100808354040283529160200191610797565b820191905f5260205f20905b81548152906001019060200180831161077a57829003601f168201915b5050505050905090565b6107b36107ac610ccd565b8383610ef1565b5050565b6107c28484846104ec565b6107d66107cd610ccd565b858585856110ca565b50505050565b60606107e782610c0e565b505f6107f1611276565b90505f6107fd8461128c565b90505f825103610811578092505050610853565b5f8151111561084557818160405160200161082d929190612291565b60405160208183030381529060405292505050610853565b61084e8461132d565b925050505b919050565b5f60095f8381526020019081526020015f20549050919050565b5f61087b611393565b5f82116108bd576040517f08c379a00000000000000000000000000000000000000000000000000000000081526004016108b4906122fe565b60405180910390fd5b5f670de0b6b3a7640000836108d29190612349565b905060075f9054906101000a900473ffffffffffffffffffffffffffffffffffffffff1673ffffffffffffffffffffffffffffffffffffffff166323b872dd3330846040518463ffffffff1660e01b81526004016109329392919061238a565b6020604051808303815f875af115801561094e573d5f5f3e3d5ffd5b505050506040513d601f19601f8201168201806040525081019061097291906123d3565b6109b1576040517f08c379a00000000000000000000000000000000000000000000000000000000081526004016109a890612448565b60405180910390fd5b5f60085490506109c133826113b5565b8360095f8381526020019081526020015f20819055505f6040518060600160405280602c8152602001612843602c91399050610a268282610a01856113d2565b604051602001610a12929190612291565b60405160208183030381529060405261149c565b3373ffffffffffffffffffffffffffffffffffffffff16827feef75c38f4ac82ade06503bda55ce73d27571f5de4474b3f1478f601bc7509d787604051610a6d9190611ee6565b60405180910390a360085f815480929190610a8790612466565b9190505550819350505050610a9a6114f6565b919050565b5f60055f8473ffffffffffffffffffffffffffffffffffffffff1673ffffffffffffffffffffffffffffffffffffffff1681526020019081526020015f205f8373ffffffffffffffffffffffffffffffffffffffff1673ffffffffffffffffffffffffffffffffffffffff1681526020019081526020015f205f9054906101000a900460ff16905092915050565b5f7f80ac58cd000000000000000000000000000000000000000000000000000000007bffffffffffffffffffffffffffffffffffffffffffffffffffffffff1916827bffffffffffffffffffffffffffffffffffffffffffffffffffffffff19161480610bf757507f5b5e139f000000000000000000000000000000000000000000000000000000007bffffffffffffffffffffffffffffffffffffffffffffffffffffffff1916827bffffffffffffffffffffffffffffffffffffffffffffffffffffffff1916145b80610c075750610c0682611510565b5b9050919050565b5f5f610c1983611579565b90505f73ffffffffffffffffffffffffffffffffffffffff168173ffffffffffffffffffffffffffffffffffffffff1603610c8b57826040517f7e273289000000000000000000000000000000000000000000000000000000008152600401610c829190611ee6565b60405180910390fd5b80915050919050565b5f60045f8381526020019081526020015f205f9054906101000a900473ffffffffffffffffffffffffffffffffffffffff169050919050565b5f33905090565b610ce183838360016115b2565b505050565b5f5f610cf184611579565b90505f73ffffffffffffffffffffffffffffffffffffffff168373ffffffffffffffffffffffffffffffffffffffff1614610d3257610d31818486611771565b5b5f73ffffffffffffffffffffffffffffffffffffffff168173ffffffffffffffffffffffffffffffffffffffff1614610dbd57610d715f855f5f6115b2565b600160035f8373ffffffffffffffffffffffffffffffffffffffff1673ffffffffffffffffffffffffffffffffffffffff1681526020019081526020015f205f82825403925050819055505b5f73ffffffffffffffffffffffffffffffffffffffff168573ffffffffffffffffffffffffffffffffffffffff1614610e3c57600160035f8773ffffffffffffffffffffffffffffffffffffffff1673ffffffffffffffffffffffffffffffffffffffff1681526020019081526020015f205f82825401925050819055505b8460025f8681526020019081526020015f205f6101000a81548173ffffffffffffffffffffffffffffffffffffffff021916908373ffffffffffffffffffffffffffffffffffffffff160217905550838573ffffffffffffffffffffffffffffffffffffffff168273ffffffffffffffffffffffffffffffffffffffff167fddf252ad1be2c89b69c2b068fc378daa952ba7f163c4a11628f55a4df523b3ef60405160405180910390a4809150509392505050565b5f73ffffffffffffffffffffffffffffffffffffffff168373ffffffffffffffffffffffffffffffffffffffff1603610f61575f6040517fa9fbf51f000000000000000000000000000000000000000000000000000000008152600401610f589190611ddb565b60405180910390fd5b5f73ffffffffffffffffffffffffffffffffffffffff168273ffffffffffffffffffffffffffffffffffffffff1603610fd157816040517f5b08ba18000000000000000000000000000000000000000000000000000000008152600401610fc89190611ddb565b60405180910390fd5b8060055f8573ffffffffffffffffffffffffffffffffffffffff1673ffffffffffffffffffffffffffffffffffffffff1681526020019081526020015f205f8473ffffffffffffffffffffffffffffffffffffffff1673ffffffffffffffffffffffffffffffffffffffff1681526020019081526020015f205f6101000a81548160ff0219169083151502179055508173ffffffffffffffffffffffffffffffffffffffff168373ffffffffffffffffffffffffffffffffffffffff167f17307eab39ab6107e8899845ad3d59bd9653f200f220920489ca2b5937696c31836040516110bd9190611c95565b60405180910390a3505050565b5f8373ffffffffffffffffffffffffffffffffffffffff163b111561126f578273ffffffffffffffffffffffffffffffffffffffff1663150b7a02868685856040518563ffffffff1660e01b815260040161112894939291906124ff565b6020604051808303815f875af192505050801561116357506040513d601f19601f82011682018060405250810190611160919061255d565b60015b6111e4573d805f8114611191576040519150601f19603f3d011682016040523d82523d5f602084013e611196565b606091505b505f8151036111dc57836040517f64a0ae920000000000000000000000000000000000000000000000000000000081526004016111d39190611ddb565b60405180910390fd5b805160208201fd5b63150b7a0260e01b7bffffffffffffffffffffffffffffffffffffffffffffffffffffffff1916817bffffffffffffffffffffffffffffffffffffffffffffffffffffffff19161461126d57836040517f64a0ae920000000000000000000000000000000000000000000000000000000081526004016112649190611ddb565b60405180910390fd5b505b5050505050565b606060405180602001604052805f815250905090565b606060065f8381526020019081526020015f2080546112aa906121f2565b80601f01602080910402602001604051908101604052809291908181526020018280546112d6906121f2565b80156113215780601f106112f857610100808354040283529160200191611321565b820191905f5260205f20905b81548152906001019060200180831161130457829003601f168201915b50505050509050919050565b606061133882610c0e565b505f611342611276565b90505f8151116113605760405180602001604052805f81525061138b565b8061136a846113d2565b60405160200161137b929190612291565b6040516020818303038152906040525b915050919050565b61139b611834565b60026113ad6113a8611875565b61189e565b5f0181905550565b6113ce828260405180602001604052805f8152506118a7565b5050565b60605f60016113e0846118ca565b0190505f8167ffffffffffffffff8111156113fe576113fd611fe3565b5b6040519080825280601f01601f1916602001820160405280156114305781602001600182028036833780820191505090505b5090505f82602083010190505b600115611491578080600190039150507f3031323334353637383961626364656600000000000000000000000000000000600a86061a8153600a858161148657611485612588565b5b0494505f850361143d575b819350505050919050565b8060065f8481526020019081526020015f2090816114ba919061274c565b507ff8e1a15aba9398e019f0b49df1a4fde98ee17ae345cb5f6b5e2c27f5033e8ce7826040516114ea9190611ee6565b60405180910390a15050565b6001611508611503611875565b61189e565b5f0181905550565b5f7f01ffc9a7000000000000000000000000000000000000000000000000000000007bffffffffffffffffffffffffffffffffffffffffffffffffffffffff1916827bffffffffffffffffffffffffffffffffffffffffffffffffffffffff1916149050919050565b5f60025f8381526020019081526020015f205f9054906101000a900473ffffffffffffffffffffffffffffffffffffffff169050919050565b80806115ea57505f73ffffffffffffffffffffffffffffffffffffffff168273ffffffffffffffffffffffffffffffffffffffff1614155b1561171c575f6115f984610c0e565b90505f73ffffffffffffffffffffffffffffffffffffffff168373ffffffffffffffffffffffffffffffffffffffff161415801561166357508273ffffffffffffffffffffffffffffffffffffffff168173ffffffffffffffffffffffffffffffffffffffff1614155b801561167657506116748184610a9f565b155b156116b857826040517fa9fbf51f0000000000000000000000000000000000000000000000000000000081526004016116af9190611ddb565b60405180910390fd5b811561171a57838573ffffffffffffffffffffffffffffffffffffffff168273ffffffffffffffffffffffffffffffffffffffff167f8c5be1e5ebec7d5bd14f71427d1e84f3dd0314c0f7b2291e5b200ac8c7c3b92560405160405180910390a45b505b8360045f8581526020019081526020015f205f6101000a81548173ffffffffffffffffffffffffffffffffffffffff021916908373ffffffffffffffffffffffffffffffffffffffff16021790555050505050565b61177c838383611a1b565b61182f575f73ffffffffffffffffffffffffffffffffffffffff168373ffffffffffffffffffffffffffffffffffffffff16036117f057806040517f7e2732890000000000000000000000000000000000000000000000000000000081526004016117e79190611ee6565b60405180910390fd5b81816040517f177e802f00000000000000000000000000000000000000000000000000000000815260040161182692919061281b565b60405180910390fd5b505050565b61183c611adb565b15611873576040517f3ee5aeb500000000000000000000000000000000000000000000000000000000815260040160405180910390fd5b565b5f7f9b779b17422d0df92223018b32b4d1fa46e071723d6817e2486d003becc55f005f1b905090565b5f819050919050565b6118b18383611af7565b6118c56118bc610ccd565b5f8585856110ca565b505050565b5f5f5f90507a184f03e93ff9f4daa797ed6e38ed64bf6a1f0100000000000000008310611926577a184f03e93ff9f4daa797ed6e38ed64bf6a1f010000000000000000838161191c5761191b612588565b5b0492506040810190505b6d04ee2d6d415b85acef81000000008310611963576d04ee2d6d415b85acef8100000000838161195957611958612588565b5b0492506020810190505b662386f26fc10000831061199257662386f26fc10000838161198857611987612588565b5b0492506010810190505b6305f5e10083106119bb576305f5e10083816119b1576119b0612588565b5b0492506008810190505b61271083106119e05761271083816119d6576119d5612588565b5b0492506004810190505b60648310611a0357606483816119f9576119f8612588565b5b0492506002810190505b600a8310611a12576001810190505b80915050919050565b5f5f73ffffffffffffffffffffffffffffffffffffffff168373ffffffffffffffffffffffffffffffffffffffff1614158015611ad257508273ffffffffffffffffffffffffffffffffffffffff168473ffffffffffffffffffffffffffffffffffffffff161480611a935750611a928484610a9f565b5b80611ad157508273ffffffffffffffffffffffffffffffffffffffff16611ab983610c94565b73ffffffffffffffffffffffffffffffffffffffff16145b5b90509392505050565b5f6002611aee611ae9611875565b61189e565b5f015414905090565b5f73ffffffffffffffffffffffffffffffffffffffff168273ffffffffffffffffffffffffffffffffffffffff1603611b67575f6040517f64a0ae92000000000000000000000000000000000000000000000000000000008152600401611b5e9190611ddb565b60405180910390fd5b5f611b7383835f610ce6565b90505f73ffffffffffffffffffffffffffffffffffffffff168173ffffffffffffffffffffffffffffffffffffffff1614611be5575f6040517f73c6ac6e000000000000000000000000000000000000000000000000000000008152600401611bdc9190611ddb565b60405180910390fd5b505050565b5f604051905090565b5f5ffd5b5f5ffd5b5f7fffffffff0000000000000000000000000000000000000000000000000000000082169050919050565b611c2f81611bfb565b8114611c39575f5ffd5b50565b5f81359050611c4a81611c26565b92915050565b5f60208284031215611c6557611c64611bf3565b5b5f611c7284828501611c3c565b91505092915050565b5f8115159050919050565b611c8f81611c7b565b82525050565b5f602082019050611ca85f830184611c86565b92915050565b5f81519050919050565b5f82825260208201905092915050565b8281835e5f83830152505050565b5f601f19601f8301169050919050565b5f611cf082611cae565b611cfa8185611cb8565b9350611d0a818560208601611cc8565b611d1381611cd6565b840191505092915050565b5f6020820190508181035f830152611d368184611ce6565b905092915050565b5f819050919050565b611d5081611d3e565b8114611d5a575f5ffd5b50565b5f81359050611d6b81611d47565b92915050565b5f60208284031215611d8657611d85611bf3565b5b5f611d9384828501611d5d565b91505092915050565b5f73ffffffffffffffffffffffffffffffffffffffff82169050919050565b5f611dc582611d9c565b9050919050565b611dd581611dbb565b82525050565b5f602082019050611dee5f830184611dcc565b92915050565b611dfd81611dbb565b8114611e07575f5ffd5b50565b5f81359050611e1881611df4565b92915050565b5f5f60408385031215611e3457611e33611bf3565b5b5f611e4185828601611e0a565b9250506020611e5285828601611d5d565b9150509250929050565b5f5f5f60608486031215611e7357611e72611bf3565b5b5f611e8086828701611e0a565b9350506020611e9186828701611e0a565b9250506040611ea286828701611d5d565b9150509250925092565b5f60208284031215611ec157611ec0611bf3565b5b5f611ece84828501611e0a565b91505092915050565b611ee081611d3e565b82525050565b5f602082019050611ef95f830184611ed7565b92915050565b5f819050919050565b5f611f22611f1d611f1884611d9c565b611eff565b611d9c565b9050919050565b5f611f3382611f08565b9050919050565b5f611f4482611f29565b9050919050565b611f5481611f3a565b82525050565b5f602082019050611f6d5f830184611f4b565b92915050565b611f7c81611c7b565b8114611f86575f5ffd5b50565b5f81359050611f9781611f73565b92915050565b5f5f60408385031215611fb357611fb2611bf3565b5b5f611fc085828601611e0a565b9250506020611fd185828601611f89565b9150509250929050565b5f5ffd5b5f5ffd5b7f4e487b71000000000000000000000000000000000000000000000000000000005f52604160045260245ffd5b61201982611cd6565b810181811067ffffffffffffffff8211171561203857612037611fe3565b5b80604052505050565b5f61204a611bea565b90506120568282612010565b919050565b5f67ffffffffffffffff82111561207557612074611fe3565b5b61207e82611cd6565b9050602081019050919050565b828183375f83830152505050565b5f6120ab6120a68461205b565b612041565b9050828152602081018484840111156120c7576120c6611fdf565b5b6120d284828561208b565b509392505050565b5f82601f8301126120ee576120ed611fdb565b5b81356120fe848260208601612099565b91505092915050565b5f5f5f5f6080858703121561211f5761211e611bf3565b5b5f61212c87828801611e0a565b945050602061213d87828801611e0a565b935050604061214e87828801611d5d565b925050606085013567ffffffffffffffff81111561216f5761216e611bf7565b5b61217b878288016120da565b91505092959194509250565b5f5f6040838503121561219d5761219c611bf3565b5b5f6121aa85828601611e0a565b92505060206121bb85828601611e0a565b9150509250929050565b7f4e487b71000000000000000000000000000000000000000000000000000000005f52602260045260245ffd5b5f600282049050600182168061220957607f821691505b60208210810361221c5761221b6121c5565b5b50919050565b5f6060820190506122355f830186611dcc565b6122426020830185611ed7565b61224f6040830184611dcc565b949350505050565b5f81905092915050565b5f61226b82611cae565b6122758185612257565b9350612285818560208601611cc8565b80840191505092915050565b5f61229c8285612261565b91506122a88284612261565b91508190509392505050565b7f416d6f756e74206d7573742062652067726561746572207468616e20300000005f82015250565b5f6122e8601d83611cb8565b91506122f3826122b4565b602082019050919050565b5f6020820190508181035f830152612315816122dc565b9050919050565b7f4e487b71000000000000000000000000000000000000000000000000000000005f52601160045260245ffd5b5f61235382611d3e565b915061235e83611d3e565b925082820261236c81611d3e565b915082820484148315176123835761238261231c565b5b5092915050565b5f60608201905061239d5f830186611dcc565b6123aa6020830185611dcc565b6123b76040830184611ed7565b949350505050565b5f815190506123cd81611f73565b92915050565b5f602082840312156123e8576123e7611bf3565b5b5f6123f5848285016123bf565b91505092915050565b7f546f6b656e207472616e73666572206661696c656400000000000000000000005f82015250565b5f612432601583611cb8565b915061243d826123fe565b602082019050919050565b5f6020820190508181035f83015261245f81612426565b9050919050565b5f61247082611d3e565b91507fffffffffffffffffffffffffffffffffffffffffffffffffffffffffffffffff82036124a2576124a161231c565b5b600182019050919050565b5f81519050919050565b5f82825260208201905092915050565b5f6124d1826124ad565b6124db81856124b7565b93506124eb818560208601611cc8565b6124f481611cd6565b840191505092915050565b5f6080820190506125125f830187611dcc565b61251f6020830186611dcc565b61252c6040830185611ed7565b818103606083015261253e81846124c7565b905095945050505050565b5f8151905061255781611c26565b92915050565b5f6020828403121561257257612571611bf3565b5b5f61257f84828501612549565b91505092915050565b7f4e487b71000000000000000000000000000000000000000000000000000000005f52601260045260245ffd5b5f819050815f5260205f209050919050565b5f6020601f8301049050919050565b5f82821b905092915050565b5f600883026126117fffffffffffffffffffffffffffffffffffffffffffffffffffffffffffffffff826125d6565b61261b86836125d6565b95508019841693508086168417925050509392505050565b5f61264d61264861264384611d3e565b611eff565b611d3e565b9050919050565b5f819050919050565b61266683612633565b61267a61267282612654565b8484546125e2565b825550505050565b5f5f905090565b612691612682565b61269c81848461265d565b505050565b5b818110156126bf576126b45f82612689565b6001810190506126a2565b5050565b601f821115612704576126d5816125b5565b6126de846125c7565b810160208510156126ed578190505b6127016126f9856125c7565b8301826126a1565b50505b505050565b5f82821c905092915050565b5f6127245f1984600802612709565b1980831691505092915050565b5f61273c8383612715565b9150826002028217905092915050565b61275582611cae565b67ffffffffffffffff81111561276e5761276d611fe3565b5b61277882546121f2565b6127838282856126c3565b5f60209050601f8311600181146127b4575f84156127a2578287015190505b6127ac8582612731565b865550612813565b601f1984166127c2866125b5565b5f5b828110156127e9578489015182556001820191506020850194506020810190506127c4565b868310156128065784890151612802601f891682612715565b8355505b6001600288020188555050505b505050505050565b5f60408201905061282e5f830185611dcc565b61283b6020830184611ed7565b939250505056fe68747470733a2f2f626c7565636172626f6e2d6d72762e636f6d2f6170692f6e66742f6d657461646174612fa264697066735822122008c574c7136eb6aa86bded973308f60762f6668eec4872ce019bef8d69c2edfd64736f6c634300081c0033",
  "linkReferences": {},
  "deployedLinkReferences": {}
}