{
  "_format": "hh-sol-artifact-1",
  "contractName": "CarbonMarketplace",
  "sourceName": "contracts/CarbonMarketplace.sol",
  "abi": [
    {
      "inputs": [
        {
          "internalType": "address",
          "name": "_carbonTokenAddress",
          "type": "address"
        }
      ],
      "stateMutability": "nonpayable",
      "type": "constructor"
    },
    {
      "inputs": [],
      "name": "ReentrancyGuardReentrantCall",
      "type": "error"
    },
    {
      "anonymous": false,
      "inputs": [
        {
          "indexed": true,
          "internalType": "uint256",
          "name": "id",
          "type": "uint256"
        },
        {
          "indexed": true,
          "internalType": "address",
          "name": "buyer",
          "type": "address"
        },
        {
          "indexed": false,
          "internalType": "uint256",
          "name": "amount",
          "type": "uint256"
        }
      ],
      "name": "ListingBought",
      "type": "event"
    },
    {
      "anonymous": false,
      "inputs": [
        {
          "indexed": true,
          "internalType": "uint256",
          "name": "id",
          "type": "uint256"
        },
        {
          "indexed": true,
          "internalType": "address",
          "name": "seller",
          "type": "address"
        }
      ],
      "name": "ListingCanceled",
      "type": "event"
    },
    {
      "anonymous": false,
      "inputs": [
        {
          "indexed": true,
          "internalType": "uint256",
          "name": "id",
          "type": "uint256"
        },
        {
          "indexed": true,
          "internalType": "address",
          "name": "seller",
          "type": "address"
        },
        {
          "indexed": false,
          "internalType": "uint256",
          "name": "amount",
          "type": "uint256"
        },
        {
          "indexed": false,
          "internalType": "uint256",
          "name": "pricePerToken",
          "type": "uint256"
        }
      ],
      "name": "ListingCreated",
      "type": "event"
    },
    {
      "inputs": [
        {
          "internalType": "uint256",
          "name": "listingId",
          "type": "uint256"
        }
      ],
      "name": "buyTokens",
      "outputs": [],
      "stateMutability": "payable",
      "type": "function"
    },
    {
      "inputs": [
        {
          "internalType": "uint256",
          "name": "listingId",
          "type": "uint256"
        }
      ],
      "name": "cancelListing",
      "outputs": [],
      "stateMutability": "nonpayable",
      "type": "function"
    },
    {
      "inputs": [],
      "name": "carbonToken",
      "outputs": [
        {
          "internalType": "contract IERC20",
          "name": "",
          "type": "address"
        }
      ],
      "stateMutability": "view",
      "type": "function"
    },
    {
      "inputs": [],
      "name": "getActiveListings",
      "outputs": [
        {
          "components": [
            {
              "internalType": "uint256",
              "name": "id",
              "type": "uint256"
            },
            {
              "internalType": "address",
              "name": "seller",
              "type": "address"
            },
            {
              "internalType": "uint256",
              "name": "amount",
              "type": "uint256"
            },
            {
              "internalType": "uint256",
              "name": "pricePerToken",
              "type": "uint256"
            },
            {
              "internalType": "bool",
              "name": "active",
              "type": "bool"
            }
          ],
          "internalType": "struct CarbonMarketplace.Listing[]",
          "name": "",
          "type": "tuple[]"
        }
      ],
      "stateMutability": "view",
      "type": "function"
    },
    {
      "inputs": [
        {
          "internalType": "uint256",
          "name": "amount",
          "type": "uint256"
        },
        {
          "internalType": "uint256",
          "name": "pricePerToken",
          "type": "uint256"
        }
      ],
      "name": "listTokens",
      "outputs": [],
      "stateMutability": "nonpayable",
      "type": "function"
    },
    {
      "inputs": [
        {
          "internalType": "uint256",
          "name": "",
          "type": "uint256"
        }
      ],
      "name": "listings",
      "outputs": [
        {
          "internalType": "uint256",
          "name": "id",
          "type": "uint256"
        },
        {
          "internalType": "address",
          "name": "seller",
          "type": "address"
        },
        {
          "internalType": "uint256",
          "name": "amount",
          "type": "uint256"
        },
        {
          "internalType": "uint256",
          "name": "pricePerToken",
          "type": "uint256"
        },
        {
          "internalType": "bool",
          "name": "active",
          "type": "bool"
        }
      ],
      "stateMutability": "view",
      "type": "function"
    },
    {
      "inputs": [],
      "name": "nextListingId",
      "outputs": [
        {
          "internalType": "uint256",
          "name": "",
          "type": "uint256"
        }
      ],
      "stateMutability": "view",
      "type": "function"
    }
  ],
  "bytecode": "0x608060405234801561001057600080fd5b5060405161199238038061199283398181016040528101906100329190610135565b600161005061004561009d60201b60201c565b6100c860201b60201c565b60000181905550806000806101000a81548173ffffffffffffffffffffffffffffffffffffffff021916908373ffffffffffffffffffffffffffffffffffffffff16021790555050610162565b60007f9b779b17422d0df92223018b32b4d1fa46e071723d6817e2486d003becc55f0060001b905090565b6000819050919050565b600080fd5b600073ffffffffffffffffffffffffffffffffffffffff82169050919050565b6000610102826100d7565b9050919050565b610112816100f7565b811461011d57600080fd5b50565b60008151905061012f81610109565b92915050565b60006020828403121561014b5761014a6100d2565b5b600061015984828501610120565b91505092915050565b611821806101716000396000f3fe6080604052600436106100705760003560e01c806387c35bc01161004e57806387c35bc0146100e5578063aaccf1ec14610110578063de74e57b1461013b578063e30e5ae91461017c57610070565b8063305a67a8146100755780633610724e1461009e57806382a71ef2146100ba575b600080fd5b34801561008157600080fd5b5061009c60048036038101906100979190610e75565b6101a5565b005b6100b860048036038101906100b39190610e75565b61040e565b005b3480156100c657600080fd5b506100cf6107e2565b6040516100dc9190610f21565b60405180910390f35b3480156100f157600080fd5b506100fa610806565b604051610107919061109e565b60405180910390f35b34801561011c57600080fd5b506101256109dc565b60405161013291906110cf565b60405180910390f35b34801561014757600080fd5b50610162600480360381019061015d9190610e75565b6109e2565b604051610173959493929190611108565b60405180910390f35b34801561018857600080fd5b506101a3600480360381019061019e919061115b565b610a45565b005b6101ad610d21565b60006001600083815260200190815260200160002090508060040160009054906101000a900460ff16610215576040517f08c379a000000000000000000000000000000000000000000000000000000000815260040161020c906111f8565b60405180910390fd5b3373ffffffffffffffffffffffffffffffffffffffff168160010160009054906101000a900473ffffffffffffffffffffffffffffffffffffffff1673ffffffffffffffffffffffffffffffffffffffff16146102a7576040517f08c379a000000000000000000000000000000000000000000000000000000000815260040161029e90611264565b60405180910390fd5b60008160040160006101000a81548160ff0219169083151502179055506000670de0b6b3a764000082600201546102de91906112b3565b905060008054906101000a900473ffffffffffffffffffffffffffffffffffffffff1673ffffffffffffffffffffffffffffffffffffffff1663a9059cbb33836040518363ffffffff1660e01b815260040161033b9291906112f5565b6020604051808303816000875af115801561035a573d6000803e3d6000fd5b505050506040513d601f19601f8201168201806040525081019061037e919061134a565b6103bd576040517f08c379a00000000000000000000000000000000000000000000000000000000081526004016103b4906113c3565b60405180910390fd5b3373ffffffffffffffffffffffffffffffffffffffff16837fbb7be15645f4eda9d65591c3a81b5e39256151f91bc25180315de259167c2e2360405160405180910390a3505061040b610d44565b50565b610416610d21565b60006001600083815260200190815260200160002090508060040160009054906101000a900460ff1661047e576040517f08c379a0000000000000000000000000000000000000000000000000000000008152600401610475906111f8565b60405180910390fd5b60008160030154826002015461049491906112b3565b9050803410156104d9576040517f08c379a00000000000000000000000000000000000000000000000000000000081526004016104d09061142f565b60405180910390fd5b60008260040160006101000a81548160ff0219169083151502179055506000670de0b6b3a7640000836002015461051091906112b3565b905060008360010160009054906101000a900473ffffffffffffffffffffffffffffffffffffffff1673ffffffffffffffffffffffffffffffffffffffff168360405161055c90611480565b60006040518083038185875af1925050503d8060008114610599576040519150601f19603f3d011682016040523d82523d6000602084013e61059e565b606091505b50509050806105e2576040517f08c379a00000000000000000000000000000000000000000000000000000000081526004016105d9906114e1565b60405180910390fd5b823411156106a35760003373ffffffffffffffffffffffffffffffffffffffff16843461060f9190611501565b60405161061b90611480565b60006040518083038185875af1925050503d8060008114610658576040519150601f19603f3d011682016040523d82523d6000602084013e61065d565b606091505b50509050806106a1576040517f08c379a000000000000000000000000000000000000000000000000000000000815260040161069890611581565b60405180910390fd5b505b60008054906101000a900473ffffffffffffffffffffffffffffffffffffffff1673ffffffffffffffffffffffffffffffffffffffff1663a9059cbb33846040518363ffffffff1660e01b81526004016106fe9291906112f5565b6020604051808303816000875af115801561071d573d6000803e3d6000fd5b505050506040513d601f19601f82011682018060405250810190610741919061134a565b610780576040517f08c379a0000000000000000000000000000000000000000000000000000000008152600401610777906115ed565b60405180910390fd5b3373ffffffffffffffffffffffffffffffffffffffff16857f353f76da30e3999180c686b8fab4aa0ef83daa7cfa7326158d5283490dda598f86600201546040516107cb91906110cf565b60405180910390a3505050506107df610d44565b50565b60008054906101000a900473ffffffffffffffffffffffffffffffffffffffff1681565b60606000805b60025481101561085b576001600082815260200190815260200160002060040160009054906101000a900460ff161561084e57818061084a9061160d565b9250505b808060010191505061080c565b5060008167ffffffffffffffff81111561087857610877611655565b5b6040519080825280602002602001820160405280156108b157816020015b61089e610df3565b8152602001906001900390816108965790505b5090506000805b6002548110156109d2576001600082815260200190815260200160002060040160009054906101000a900460ff16156109c557600160008281526020019081526020016000206040518060a0016040529081600082015481526020016001820160009054906101000a900473ffffffffffffffffffffffffffffffffffffffff1673ffffffffffffffffffffffffffffffffffffffff1673ffffffffffffffffffffffffffffffffffffffff16815260200160028201548152602001600382015481526020016004820160009054906101000a900460ff1615151515815250508383815181106109ab576109aa611684565b5b602002602001018190525081806109c19061160d565b9250505b80806001019150506108b8565b5081935050505090565b60025481565b60016020528060005260406000206000915090508060000154908060010160009054906101000a900473ffffffffffffffffffffffffffffffffffffffff16908060020154908060030154908060040160009054906101000a900460ff16905085565b610a4d610d21565b60008211610a90576040517f08c379a0000000000000000000000000000000000000000000000000000000008152600401610a87906116ff565b60405180910390fd5b60008111610ad3576040517f08c379a0000000000000000000000000000000000000000000000000000000008152600401610aca9061176b565b60405180910390fd5b6000670de0b6b3a764000083610ae991906112b3565b905060008054906101000a900473ffffffffffffffffffffffffffffffffffffffff1673ffffffffffffffffffffffffffffffffffffffff166323b872dd3330846040518463ffffffff1660e01b8152600401610b489392919061178b565b6020604051808303816000875af1158015610b67573d6000803e3d6000fd5b505050506040513d601f19601f82011682018060405250810190610b8b919061134a565b610bca576040517f08c379a0000000000000000000000000000000000000000000000000000000008152600401610bc1906115ed565b60405180910390fd5b6040518060a0016040528060025481526020013373ffffffffffffffffffffffffffffffffffffffff168152602001848152602001838152602001600115158152506001600060025481526020019081526020016000206000820151816000015560208201518160010160006101000a81548173ffffffffffffffffffffffffffffffffffffffff021916908373ffffffffffffffffffffffffffffffffffffffff160217905550604082015181600201556060820151816003015560808201518160040160006101000a81548160ff0219169083151502179055509050503373ffffffffffffffffffffffffffffffffffffffff166002547f12dc294b81a709d694b1337a350a12a00076c19a77a25aab67a5f0c07e0f164d8585604051610cf49291906117c2565b60405180910390a360026000815480929190610d0f9061160d565b919050555050610d1d610d44565b5050565b610d29610d5f565b6002610d3b610d36610da0565b610dcb565b60000181905550565b6001610d56610d51610da0565b610dcb565b60000181905550565b610d67610dd5565b15610d9e576040517f3ee5aeb500000000000000000000000000000000000000000000000000000000815260040160405180910390fd5b565b60007f9b779b17422d0df92223018b32b4d1fa46e071723d6817e2486d003becc55f0060001b905090565b6000819050919050565b60006002610de9610de4610da0565b610dcb565b6000015414905090565b6040518060a0016040528060008152602001600073ffffffffffffffffffffffffffffffffffffffff16815260200160008152602001600081526020016000151581525090565b600080fd5b6000819050919050565b610e5281610e3f565b8114610e5d57600080fd5b50565b600081359050610e6f81610e49565b92915050565b600060208284031215610e8b57610e8a610e3a565b5b6000610e9984828501610e60565b91505092915050565b600073ffffffffffffffffffffffffffffffffffffffff82169050919050565b6000819050919050565b6000610ee7610ee2610edd84610ea2565b610ec2565b610ea2565b9050919050565b6000610ef982610ecc565b9050919050565b6000610f0b82610eee565b9050919050565b610f1b81610f00565b82525050565b6000602082019050610f366000830184610f12565b92915050565b600081519050919050565b600082825260208201905092915050565b6000819050602082019050919050565b610f7181610e3f565b82525050565b6000610f8282610ea2565b9050919050565b610f9281610f77565b82525050565b60008115159050919050565b610fad81610f98565b82525050565b60a082016000820151610fc96000850182610f68565b506020820151610fdc6020850182610f89565b506040820151610fef6040850182610f68565b5060608201516110026060850182610f68565b5060808201516110156080850182610fa4565b50505050565b60006110278383610fb3565b60a08301905092915050565b6000602082019050919050565b600061104b82610f3c565b6110558185610f47565b935061106083610f58565b8060005b83811015611091578151611078888261101b565b975061108383611033565b925050600181019050611064565b5085935050505092915050565b600060208201905081810360008301526110b88184611040565b905092915050565b6110c981610e3f565b82525050565b60006020820190506110e460008301846110c0565b92915050565b6110f381610f77565b82525050565b61110281610f98565b82525050565b600060a08201905061111d60008301886110c0565b61112a60208301876110ea565b61113760408301866110c0565b61114460608301856110c0565b61115160808301846110f9565b9695505050505050565b6000806040838503121561117257611171610e3a565b5b600061118085828601610e60565b925050602061119185828601610e60565b9150509250929050565b600082825260208201905092915050565b7f4c697374696e67206973206e6f74206163746976650000000000000000000000600082015250565b60006111e260158361119b565b91506111ed826111ac565b602082019050919050565b60006020820190508181036000830152611211816111d5565b9050919050565b7f596f7520617265206e6f74207468652073656c6c657200000000000000000000600082015250565b600061124e60168361119b565b915061125982611218565b602082019050919050565b6000602082019050818103600083015261127d81611241565b9050919050565b7f4e487b7100000000000000000000000000000000000000000000000000000000600052601160045260246000fd5b60006112be82610e3f565b91506112c983610e3f565b92508282026112d781610e3f565b915082820484148315176112ee576112ed611284565b5b5092915050565b600060408201905061130a60008301856110ea565b61131760208301846110c0565b9392505050565b61132781610f98565b811461133257600080fd5b50565b6000815190506113448161131e565b92915050565b6000602082840312156113605761135f610e3a565b5b600061136e84828501611335565b91505092915050565b7f546f6b656e2072657475726e206661696c656400000000000000000000000000600082015250565b60006113ad60138361119b565b91506113b882611377565b602082019050919050565b600060208201905081810360008301526113dc816113a0565b9050919050565b7f496e73756666696369656e742066756e64730000000000000000000000000000600082015250565b600061141960128361119b565b9150611424826113e3565b602082019050919050565b600060208201905081810360008301526114488161140c565b9050919050565b600081905092915050565b50565b600061146a60008361144f565b91506114758261145a565b600082019050919050565b600061148b8261145d565b9150819050919050565b7f4661696c656420746f2073656e642045544820746f2073656c6c657200000000600082015250565b60006114cb601c8361119b565b91506114d682611495565b602082019050919050565b600060208201905081810360008301526114fa816114be565b9050919050565b600061150c82610e3f565b915061151783610e3f565b925082820390508181111561152f5761152e611284565b5b92915050565b7f4661696c656420746f20726566756e6420657863657373204554480000000000600082015250565b600061156b601b8361119b565b915061157682611535565b602082019050919050565b6000602082019050818103600083015261159a8161155e565b9050919050565b7f546f6b656e207472616e73666572206661696c65640000000000000000000000600082015250565b60006115d760158361119b565b91506115e2826115a1565b602082019050919050565b60006020820190508181036000830152611606816115ca565b9050919050565b600061161882610e3f565b91507fffffffffffffffffffffffffffffffffffffffffffffffffffffffffffffffff820361164a57611649611284565b5b600182019050919050565b7f4e487b7100000000000000000000000000000000000000000000000000000000600052604160045260246000fd5b7f4e487b7100000000000000000000000000000000000000000000000000000000600052603260045260246000fd5b7f416d6f756e74206d7573742062652067726561746572207468616e207a65726f600082015250565b60006116e960208361119b565b91506116f4826116b3565b602082019050919050565b60006020820190508181036000830152611718816116dc565b9050919050565b7f5072696365206d7573742062652067726561746572207468616e207a65726f00600082015250565b6000611755601f8361119b565b91506117608261171f565b602082019050919050565b6000602082019050818103600083015261178481611748565b9050919050565b60006060820190506117a060008301866110ea565b6117ad60208301856110ea565b6117ba60408301846110c0565b949350505050565b60006040820190506117d760008301856110c0565b6117e460208301846110c0565b939250505056fea26469706673582212207fecc108ebbaabecc8b419d2f556a8bca4cc783f1bc8fdf11afae0b4bbcce1de64736f6c634300081c0033",
  "linkReferences": {},
  "deployedLinkReferences": {}
}